:100000000C942A000C9434000C9434000C943400AA
:100010000C9434000C9434000C9434000C94340090
:100020000C9434000C9434000C9434000C94340080
:100030000C9434000C9434000C9434000C94340070
:100040000C9434000C9434000C9434000C94340060
:100050000C94340011241FBECFE5D8E0DEBFCDBF25
:100060000E946E010C946F010C940000843008F023
:1000700075C0683008F072C04130B1F5813099F038
:10008000813030F08230D1F0833009F067C021C078
:100090002AB381E090E002C0880F991F6A95E2F7C9
:1000A000282B2ABB5BC027B381E090E002C0880FF9
:1000B000991F6A95E2F7282B27BB50C024B381E033
:1000C00090E002C0880F991F6A95E2F7282B24BBA5
:1000D00045C021B381E090E002C0880F991F6A9566
:1000E000E2F7282B21BB3AC04423C1F5813099F0B7
:1000F000813028F08230D9F0833081F524C02AB3D2
:1001000081E090E002C0880F991F6A95E2F7809520
:1001100082238ABB23C027B381E090E002C0880F0E
:10012000991F6A95E2F78095822387BB17C024B395
:1001300081E090E002C0880F991F6A95E2F78095F0
:10014000822384BB0BC021B381E090E002C0880F02
:10015000991F6A95E2F78095822381BB81E008951B
:10016000843008F079C0683008F076C04130B1F5CD
:10017000813099F0813030F08230D1F0833009F055
:100180006BC021C02BB381E090E002C0880F991FA3
:100190006A95E2F7282B2BBB5DC028B381E090E085
:1001A00002C0880F991F6A95E2F7282B28BB52C01E
:1001B00025B381E090E002C0880F991F6A95E2F7AD
:1001C000282B25BB47C022B381E090E002C0880FF6
:1001D000991F6A95E2F7282B22BB3CC0442311F0FB
:1001E00083E00895813099F0813028F08230D9F091
:1001F000833091F524C02BB381E090E002C0880FDA
:10020000991F6A95E2F7809582238BBB23C028B3A0
:1002100081E090E002C0880F991F6A95E2F780950F
:10022000822388BB17C025B381E090E002C0880F0D
:10023000991F6A95E2F78095822385BB0BC022B394
:1002400081E090E002C0880F991F6A95E2F78095DF
:10025000822382BB81E0089581E008958430D0F448
:100260006830C0F4813049F0813028F0823039F0B4
:10027000833081F406C089B305C086B303C083B35D
:1002800001C080B390E002C0959587956A95E2F72A
:100290008170089580E00895813049F0813028F020
:1002A000823039F0833041F406C06ABB089567BBE1
:1002B000089564BB089561BB0895813049F0813091
:1002C00028F0823039F0833041F406C06BBB0895CA
:1002D00068BB089565BB089562BB0895FFCFF8948D
:0202E000FFCF4E
:00000001FF
